{
  "contractName": "PeloponnesianToken",
  "abi": [
    {
      "constant": true,
      "inputs": [],
      "name": "name",
      "outputs": [
        {
          "name": "",
          "type": "string"
        }
      ],
      "payable": false,
      "stateMutability": "view",
      "type": "function"
    },
    {
      "constant": false,
      "inputs": [
        {
          "name": "_spender",
          "type": "address"
        },
        {
          "name": "_value",
          "type": "uint256"
        }
      ],
      "name": "approve",
      "outputs": [
        {
          "name": "",
          "type": "bool"
        }
      ],
      "payable": false,
      "stateMutability": "nonpayable",
      "type": "function"
    },
    {
      "constant": true,
      "inputs": [],
      "name": "totalSupply",
      "outputs": [
        {
          "name": "",
          "type": "uint256"
        }
      ],
      "payable": false,
      "stateMutability": "view",
      "type": "function"
    },
    {
      "constant": true,
      "inputs": [],
      "name": "decimals",
      "outputs": [
        {
          "name": "",
          "type": "uint256"
        }
      ],
      "payable": false,
      "stateMutability": "view",
      "type": "function"
    },
    {
      "constant": true,
      "inputs": [],
      "name": "initialSupply",
      "outputs": [
        {
          "name": "",
          "type": "uint256"
        }
      ],
      "payable": false,
      "stateMutability": "view",
      "type": "function"
    },
    {
      "constant": false,
      "inputs": [],
      "name": "unpause",
      "outputs": [],
      "payable": false,
      "stateMutability": "nonpayable",
      "type": "function"
    },
    {
      "constant": true,
      "inputs": [],
      "name": "paused",
      "outputs": [
        {
          "name": "",
          "type": "bool"
        }
      ],
      "payable": false,
      "stateMutability": "view",
      "type": "function"
    },
    {
      "constant": false,
      "inputs": [
        {
          "name": "_spender",
          "type": "address"
        },
        {
          "name": "_subtractedValue",
          "type": "uint256"
        }
      ],
      "name": "decreaseApproval",
      "outputs": [
        {
          "name": "success",
          "type": "bool"
        }
      ],
      "payable": false,
      "stateMutability": "nonpayable",
      "type": "function"
    },
    {
      "constant": true,
      "inputs": [
        {
          "name": "owner",
          "type": "address"
        }
      ],
      "name": "balanceOf",
      "outputs": [
        {
          "name": "",
          "type": "uint256"
        }
      ],
      "payable": false,
      "stateMutability": "view",
      "type": "function"
    },
    {
      "constant": false,
      "inputs": [],
      "name": "pause",
      "outputs": [],
      "payable": false,
      "stateMutability": "nonpayable",
      "type": "function"
    },
    {
      "constant": true,
      "inputs": [],
      "name": "owner",
      "outputs": [
        {
          "name": "",
          "type": "address"
        }
      ],
      "payable": false,
      "stateMutability": "view",
      "type": "function"
    },
    {
      "constant": true,
      "inputs": [],
      "name": "symbol",
      "outputs": [
        {
          "name": "",
          "type": "string"
        }
      ],
      "payable": false,
      "stateMutability": "view",
      "type": "function"
    },
    {
      "constant": false,
      "inputs": [
        {
          "name": "_spender",
          "type": "address"
        },
        {
          "name": "_addedValue",
          "type": "uint256"
        }
      ],
      "name": "increaseApproval",
      "outputs": [
        {
          "name": "success",
          "type": "bool"
        }
      ],
      "payable": false,
      "stateMutability": "nonpayable",
      "type": "function"
    },
    {
      "constant": false,
      "inputs": [
        {
          "name": "newOwner",
          "type": "address"
        }
      ],
      "name": "transferOwnership",
      "outputs": [],
      "payable": false,
      "stateMutability": "nonpayable",
      "type": "function"
    },
    {
      "inputs": [],
      "payable": false,
      "stateMutability": "nonpayable",
      "type": "constructor"
    },
    {
      "anonymous": false,
      "inputs": [],
      "name": "Pause",
      "type": "event"
    },
    {
      "anonymous": false,
      "inputs": [],
      "name": "Unpause",
      "type": "event"
    },
    {
      "anonymous": false,
      "inputs": [
        {
          "indexed": true,
          "name": "previousOwner",
          "type": "address"
        },
        {
          "indexed": true,
          "name": "newOwner",
          "type": "address"
        }
      ],
      "name": "OwnershipTransferred",
      "type": "event"
    },
    {
      "anonymous": false,
      "inputs": [
        {
          "indexed": true,
          "name": "from",
          "type": "address"
        },
        {
          "indexed": true,
          "name": "to",
          "type": "address"
        },
        {
          "indexed": false,
          "name": "value",
          "type": "uint256"
        }
      ],
      "name": "Transfer",
      "type": "event"
    },
    {
      "anonymous": false,
      "inputs": [
        {
          "indexed": true,
          "name": "owner",
          "type": "address"
        },
        {
          "indexed": true,
          "name": "spender",
          "type": "address"
        },
        {
          "indexed": false,
          "name": "value",
          "type": "uint256"
        }
      ],
      "name": "Approval",
      "type": "event"
    },
    {
      "constant": false,
      "inputs": [
        {
          "name": "_to",
          "type": "address"
        },
        {
          "name": "_value",
          "type": "uint256"
        }
      ],
      "name": "transfer",
      "outputs": [
        {
          "name": "",
          "type": "bool"
        }
      ],
      "payable": false,
      "stateMutability": "nonpayable",
      "type": "function"
    },
    {
      "constant": false,
      "inputs": [
        {
          "name": "_from",
          "type": "address"
        },
        {
          "name": "_to",
          "type": "address"
        },
        {
          "name": "_value",
          "type": "uint256"
        }
      ],
      "name": "transferFrom",
      "outputs": [
        {
          "name": "",
          "type": "bool"
        }
      ],
      "payable": false,
      "stateMutability": "nonpayable",
      "type": "function"
    },
    {
      "constant": true,
      "inputs": [
        {
          "name": "_owner",
          "type": "address"
        },
        {
          "name": "_spender",
          "type": "address"
        }
      ],
      "name": "allowance",
      "outputs": [
        {
          "name": "remaining",
          "type": "uint256"
        }
      ],
      "payable": false,
      "stateMutability": "view",
      "type": "function"
    },
    {
      "constant": false,
      "inputs": [
        {
          "name": "_spender",
          "type": "address"
        },
        {
          "name": "_value",
          "type": "uint256"
        },
        {
          "name": "_extraData",
          "type": "bytes"
        }
      ],
      "name": "approveAndCall",
      "outputs": [
        {
          "name": "success",
          "type": "bool"
        }
      ],
      "payable": false,
      "stateMutability": "nonpayable",
      "type": "function"
    }
  ],
  "bytecode": "0x6003805460a060020a60ff021916905560c0604052600d60808190527f50656c6f706f6e6e657369616e0000000000000000000000000000000000000060a090815261004e91600491906100ef565b506040805180820190915260048082527f50454c4f000000000000000000000000000000000000000000000000000000006020909201918252610093916005916100ef565b5060126006556b204fce5e3e250261100000006007553480156100b557600080fd5b5060038054600160a060020a03191633600160a060020a03169081179091556007546000818155918252600160205260409091205561018a565b828054600181600116156101000203166002900490600052602060002090601f016020900481019282601f1061013057805160ff191683800117855561015d565b8280016001018555821561015d579182015b8281111561015d578251825591602001919060010190610142565b5061016992915061016d565b5090565b61018791905b808211156101695760008155600101610173565b90565b610e2c806101996000396000f3006080604052600436106100fb5763ffffffff7c010000000000000000000000000000000000000000000000000000000060003504166306fdde038114610100578063095ea7b31461018a57806318160ddd146101c257806323b872dd146101e9578063313ce56714610213578063378dc3dc146102285780633f4ba83a1461023d5780635c975abb14610254578063661884631461026957806370a082311461028d5780638456cb59146102ae5780638da5cb5b146102c357806395d89b41146102f4578063a9059cbb14610309578063cae9ca511461032d578063d73dd62314610396578063dd62ed3e146103ba578063f2fde38b146103e1575b600080fd5b34801561010c57600080fd5b50610115610402565b6040805160208082528351818301528351919283929083019185019080838360005b8381101561014f578181015183820152602001610137565b50505050905090810190601f16801561017c5780820380516001836020036101000a031916815260200191505b509250505060405180910390f35b34801561019657600080fd5b506101ae600160a060020a0360043516602435610490565b604080519115158252519081900360200190f35b3480156101ce57600080fd5b506101d76104bb565b60408051918252519081900360200190f35b3480156101f557600080fd5b506101ae600160a060020a03600435811690602435166044356104c1565b34801561021f57600080fd5b506101d76104e5565b34801561023457600080fd5b506101d76104eb565b34801561024957600080fd5b506102526104f1565b005b34801561026057600080fd5b506101ae61056d565b34801561027557600080fd5b506101ae600160a060020a036004351660243561057d565b34801561029957600080fd5b506101d7600160a060020a03600435166105a1565b3480156102ba57600080fd5b506102526105bc565b3480156102cf57600080fd5b506102d861063d565b60408051600160a060020a039092168252519081900360200190f35b34801561030057600080fd5b5061011561064c565b34801561031557600080fd5b506101ae600160a060020a03600435166024356106a7565b34801561033957600080fd5b50604080516020600460443581810135601f81018490048402850184019095528484526101ae948235600160a060020a03169460248035953695946064949201919081908401838280828437509497506106c79650505050505050565b3480156103a257600080fd5b506101ae600160a060020a03600435166024356107fa565b3480156103c657600080fd5b506101d7600160a060020a036004358116906024351661081e565b3480156103ed57600080fd5b50610252600160a060020a0360043516610836565b6004805460408051602060026001851615610100026000190190941693909304601f810184900484028201840190925281815292918301828280156104885780601f1061045d57610100808354040283529160200191610488565b820191906000526020600020905b81548152906001019060200180831161046b57829003601f168201915b505050505081565b60035460009060a060020a900460ff16156104aa57600080fd5b6104b483836108d1565b9392505050565b60005490565b60006003366064146104cf57fe5b6104da85858561093b565b91505b509392505050565b60065481565b60075481565b60035433600160a060020a0390811691161461050c57600080fd5b60035460a060020a900460ff16151561052457600080fd5b6003805474ff0000000000000000000000000000000000000000191690556040517f7805862f689e2f13df9f062ff482ad3ad112aca9e0847911ed832e158c525b3390600090a1565b60035460a060020a900460ff1681565b60035460009060a060020a900460ff161561059757600080fd5b6104b48383610960565b600160a060020a031660009081526001602052604090205490565b60035433600160a060020a039081169116146105d757600080fd5b60035460a060020a900460ff16156105ee57600080fd5b6003805474ff0000000000000000000000000000000000000000191660a060020a1790556040517f6985a02210a168e66602d3235cb6db0e70f92b3ba4d376a33c0f3d9434bff62590600090a1565b600354600160a060020a031681565b6005805460408051602060026001851615610100026000190190941693909304601f810184900484028201840190925281815292918301828280156104885780601f1061045d57610100808354040283529160200191610488565b60006002366044146106b557fe5b6106bf8484610a59565b949350505050565b6000836106d48185610490565b156104dd5780600160a060020a0316638f4ffcb1338630876040518563ffffffff167c01000000000000000000000000000000000000000000000000000000000281526004018085600160a060020a0316600160a060020a0316815260200184815260200183600160a060020a0316600160a060020a0316815260200180602001828103825283818151815260200191508051906020019080838360005b8381101561078a578181015183820152602001610772565b50505050905090810190601f1680156107b75780820380516001836020036101000a031916815260200191505b5095505050505050600060405180830381600087803b1580156107d957600080fd5b505af11580156107ed573d6000803e3d6000fd5b50505050600191506104dd565b60035460009060a060020a900460ff161561081457600080fd5b6104b48383610a7d565b600060023660441461082c57fe5b6106bf8484610b1f565b60035433600160a060020a0390811691161461085157600080fd5b80600160a060020a038116151561086757600080fd5b600354604051600160a060020a038085169216907f8be0079c531659141344cd1fd0a4f28419497f9722a3daafe3b4186f6b6457e090600090a3506003805473ffffffffffffffffffffffffffffffffffffffff1916600160a060020a0392909216919091179055565b600160a060020a03338116600081815260026020908152604080832094871680845294825280832086905580518681529051929493927f8c5be1e5ebec7d5bd14f71427d1e84f3dd0314c0f7b2291e5b200ac8c7c3b925929181900390910190a350600192915050565b60035460009060a060020a900460ff161561095557600080fd5b6106bf848484610b4a565b600160a060020a033381166000908152600260209081526040808320938616835292905290812054808311156109bd57600160a060020a0333811660009081526002602090815260408083209388168352929052908120556109f4565b6109cd818463ffffffff610cdd16565b600160a060020a033381166000908152600260209081526040808320938916835292905220555b600160a060020a0333811660008181526002602090815260408083209489168084529482529182902054825190815291517f8c5be1e5ebec7d5bd14f71427d1e84f3dd0314c0f7b2291e5b200ac8c7c3b9259281900390910190a35060019392505050565b60035460009060a060020a900460ff1615610a7357600080fd5b6104b48383610cef565b600160a060020a033381166000908152600260209081526040808320938616835292905290812054610ab5908363ffffffff610df116565b600160a060020a0333811660008181526002602090815260408083209489168084529482529182902085905581519485529051929391927f8c5be1e5ebec7d5bd14f71427d1e84f3dd0314c0f7b2291e5b200ac8c7c3b9259281900390910190a350600192915050565b600160a060020a03918216600090815260026020908152604080832093909416825291909152205490565b600082600160a060020a0381161515610b6257600080fd5b600160a060020a03851660009081526001602052604090205485908490811115610b8b57600080fd5b600160a060020a0380881660009081526002602090815260408083203390941683529290522054879087908790811115610bc457600080fd5b600160a060020a038a16600090815260016020526040902054610bed908963ffffffff610cdd16565b600160a060020a03808c1660009081526001602052604080822093909355908b1681522054610c22908963ffffffff610df116565b600160a060020a03808b166000908152600160209081526040808320949094558d8316825260028152838220339093168252919091522054610c6a908963ffffffff610cdd16565b600160a060020a03808c16600081815260026020908152604080832033861684528252918290209490945580518c81529051928d169391927fddf252ad1be2c89b69c2b068fc378daa952ba7f163c4a11628f55a4df523b3ef929181900390910190a35060019998505050505050505050565b600082821115610ce957fe5b50900390565b600082600160a060020a0381161515610d0757600080fd5b33600160a060020a0381166000908152600160205260409020548490811115610d2f57600080fd5b600160a060020a033316600090815260016020526040902054610d58908663ffffffff610cdd16565b600160a060020a033381166000908152600160205260408082209390935590881681522054610d8d908663ffffffff610df116565b600160a060020a038088166000818152600160209081526040918290209490945580518981529051919333909316927fddf252ad1be2c89b69c2b068fc378daa952ba7f163c4a11628f55a4df523b3ef92918290030190a350600195945050505050565b6000828201838110156104b457fe00a165627a7a72305820c4d5bd93b2f6b36f0817d40e78cab61be2306981d75bd905cef59da812eaa2a90029",
  "source": "pragma solidity ^0.4.23;\n\nimport './Protection.sol';\nimport './TokenRecipient.sol';\nimport './PausableToken.sol';\n\n\ncontract PeloponnesianToken is Protection,PausableToken {\n    string public name = \"Peloponnesian\";\n    string public symbol = \"PELO\";\n    uint256 public decimals = 18;\n    uint256 public initialSupply = 100 * 10**8 * uint256(10**decimals);\n\n\n    constructor( ) public {\n\n        _totalSupply = initialSupply;\n        _balanceOf[msg.sender] = initialSupply;\n\n    }\n\n\n    /**\n     * @dev Transfer with short address attack protection\n     */\n    function transfer(address _to, uint _value) public onlyPayloadSize(2) returns (bool) {\n        return super.transfer(_to, _value);\n    }\n\n    /**\n     * @dev TransferFrom with short address attack protection\n     */\n    function transferFrom(address _from, address _to, uint _value) public onlyPayloadSize(3) returns (bool) {\n        return super.transferFrom(_from, _to, _value);\n    }\n\n    /**\n     * @dev Allowance with short address attack protection\n     */\n    function allowance(address _owner, address _spender) public onlyPayloadSize(2) constant returns (uint256 remaining) {\n        return super.allowance(_owner, _spender);\n    }\n\n    /**\n     * @dev Approve and then communicate the approved contract in a single transaction\n     */\n    function approveAndCall(address _spender, uint256 _value, bytes _extraData) public returns (bool success) {\n        TokenRecipient spender = TokenRecipient(_spender);\n        if (approve(_spender, _value)) {\n            spender.receiveApproval(msg.sender, _value, this, _extraData);\n            return true;\n        }\n    }\n\n\n}\n",
  "sourcePath": "/PELO/PeloToken/contracts/PeloponnesianToken.sol",
  "compiler": {
    "name": "solc",
    "version": "0.4.23+commit.124ca40d.Emscripten.clang"
  },
  "schemaVersion": "2.0.0",
  "updatedAt": "2018-05-23T07:39:36.162Z"
}